{
  "contractName": "NFT",
  "abi": [
    {
      "inputs": [
        {
          "internalType": "address",
          "name": "_marketplaceContract",
          "type": "address"
        }
      ],
      "stateMutability": "nonpayable",
      "type": "constructor"
    },
    {
      "anonymous": false,
      "inputs": [
        {
          "indexed": true,
          "internalType": "address",
          "name": "owner",
          "type": "address"
        },
        {
          "indexed": true,
          "internalType": "address",
          "name": "approved",
          "type": "address"
        },
        {
          "indexed": true,
          "internalType": "uint256",
          "name": "tokenId",
          "type": "uint256"
        }
      ],
      "name": "Approval",
      "type": "event"
    },
    {
      "anonymous": false,
      "inputs": [
        {
          "indexed": true,
          "internalType": "address",
          "name": "owner",
          "type": "address"
        },
        {
          "indexed": true,
          "internalType": "address",
          "name": "operator",
          "type": "address"
        },
        {
          "indexed": false,
          "internalType": "bool",
          "name": "approved",
          "type": "bool"
        }
      ],
      "name": "ApprovalForAll",
      "type": "event"
    },
    {
      "anonymous": false,
      "inputs": [
        {
          "indexed": false,
          "internalType": "uint256",
          "name": "",
          "type": "uint256"
        }
      ],
      "name": "NFTMinted",
      "type": "event"
    },
    {
      "anonymous": false,
      "inputs": [
        {
          "indexed": true,
          "internalType": "address",
          "name": "from",
          "type": "address"
        },
        {
          "indexed": true,
          "internalType": "address",
          "name": "to",
          "type": "address"
        },
        {
          "indexed": true,
          "internalType": "uint256",
          "name": "tokenId",
          "type": "uint256"
        }
      ],
      "name": "Transfer",
      "type": "event"
    },
    {
      "inputs": [
        {
          "internalType": "address",
          "name": "to",
          "type": "address"
        },
        {
          "internalType": "uint256",
          "name": "tokenId",
          "type": "uint256"
        }
      ],
      "name": "approve",
      "outputs": [],
      "stateMutability": "nonpayable",
      "type": "function"
    },
    {
      "inputs": [
        {
          "internalType": "address",
          "name": "owner",
          "type": "address"
        }
      ],
      "name": "balanceOf",
      "outputs": [
        {
          "internalType": "uint256",
          "name": "",
          "type": "uint256"
        }
      ],
      "stateMutability": "view",
      "type": "function",
      "constant": true
    },
    {
      "inputs": [
        {
          "internalType": "uint256",
          "name": "tokenId",
          "type": "uint256"
        }
      ],
      "name": "getApproved",
      "outputs": [
        {
          "internalType": "address",
          "name": "",
          "type": "address"
        }
      ],
      "stateMutability": "view",
      "type": "function",
      "constant": true
    },
    {
      "inputs": [
        {
          "internalType": "address",
          "name": "owner",
          "type": "address"
        },
        {
          "internalType": "address",
          "name": "operator",
          "type": "address"
        }
      ],
      "name": "isApprovedForAll",
      "outputs": [
        {
          "internalType": "bool",
          "name": "",
          "type": "bool"
        }
      ],
      "stateMutability": "view",
      "type": "function",
      "constant": true
    },
    {
      "inputs": [],
      "name": "name",
      "outputs": [
        {
          "internalType": "string",
          "name": "",
          "type": "string"
        }
      ],
      "stateMutability": "view",
      "type": "function",
      "constant": true
    },
    {
      "inputs": [
        {
          "internalType": "uint256",
          "name": "tokenId",
          "type": "uint256"
        }
      ],
      "name": "ownerOf",
      "outputs": [
        {
          "internalType": "address",
          "name": "",
          "type": "address"
        }
      ],
      "stateMutability": "view",
      "type": "function",
      "constant": true
    },
    {
      "inputs": [
        {
          "internalType": "address",
          "name": "from",
          "type": "address"
        },
        {
          "internalType": "address",
          "name": "to",
          "type": "address"
        },
        {
          "internalType": "uint256",
          "name": "tokenId",
          "type": "uint256"
        }
      ],
      "name": "safeTransferFrom",
      "outputs": [],
      "stateMutability": "nonpayable",
      "type": "function"
    },
    {
      "inputs": [
        {
          "internalType": "address",
          "name": "from",
          "type": "address"
        },
        {
          "internalType": "address",
          "name": "to",
          "type": "address"
        },
        {
          "internalType": "uint256",
          "name": "tokenId",
          "type": "uint256"
        },
        {
          "internalType": "bytes",
          "name": "data",
          "type": "bytes"
        }
      ],
      "name": "safeTransferFrom",
      "outputs": [],
      "stateMutability": "nonpayable",
      "type": "function"
    },
    {
      "inputs": [
        {
          "internalType": "address",
          "name": "operator",
          "type": "address"
        },
        {
          "internalType": "bool",
          "name": "approved",
          "type": "bool"
        }
      ],
      "name": "setApprovalForAll",
      "outputs": [],
      "stateMutability": "nonpayable",
      "type": "function"
    },
    {
      "inputs": [
        {
          "internalType": "bytes4",
          "name": "interfaceId",
          "type": "bytes4"
        }
      ],
      "name": "supportsInterface",
      "outputs": [
        {
          "internalType": "bool",
          "name": "",
          "type": "bool"
        }
      ],
      "stateMutability": "view",
      "type": "function",
      "constant": true
    },
    {
      "inputs": [],
      "name": "symbol",
      "outputs": [
        {
          "internalType": "string",
          "name": "",
          "type": "string"
        }
      ],
      "stateMutability": "view",
      "type": "function",
      "constant": true
    },
    {
      "inputs": [
        {
          "internalType": "uint256",
          "name": "tokenId",
          "type": "uint256"
        }
      ],
      "name": "tokenURI",
      "outputs": [
        {
          "internalType": "string",
          "name": "",
          "type": "string"
        }
      ],
      "stateMutability": "view",
      "type": "function",
      "constant": true
    },
    {
      "inputs": [
        {
          "internalType": "address",
          "name": "from",
          "type": "address"
        },
        {
          "internalType": "address",
          "name": "to",
          "type": "address"
        },
        {
          "internalType": "uint256",
          "name": "tokenId",
          "type": "uint256"
        }
      ],
      "name": "transferFrom",
      "outputs": [],
      "stateMutability": "nonpayable",
      "type": "function"
    },
    {
      "inputs": [
        {
          "internalType": "string",
          "name": "_tokenURI",
          "type": "string"
        }
      ],
      "name": "mint",
      "outputs": [],
      "stateMutability": "nonpayable",
      "type": "function"
    }
  ],
  "bytecode": "0x60806040523480156200001157600080fd5b50604051620031cb380380620031cb83398181016040528101906200003791906200017b565b6040518060400160405280600881526020017f446573616d706c720000000000000000000000000000000000000000000000008152506040518060400160405280600581526020017f44534d504c0000000000000000000000000000000000000000000000000000008152508160009081620000b4919062000427565b508060019081620000c6919062000427565b50505080600860006101000a81548173ffffffffffffffffffffffffffffffffffffffff021916908373ffffffffffffffffffffffffffffffffffffffff160217905550506200050e565b600080fd5b600073ffffffffffffffffffffffffffffffffffffffff82169050919050565b6000620001438262000116565b9050919050565b620001558162000136565b81146200016157600080fd5b50565b60008151905062000175816200014a565b92915050565b60006020828403121562000194576200019362000111565b5b6000620001a48482850162000164565b91505092915050565b600081519050919050565b7f4e487b7100000000000000000000000000000000000000000000000000000000600052604160045260246000fd5b7f4e487b7100000000000000000000000000000000000000000000000000000000600052602260045260246000fd5b600060028204905060018216806200022f57607f821691505b602082108103620002455762000244620001e7565b5b50919050565b60008190508160005260206000209050919050565b60006020601f8301049050919050565b600082821b905092915050565b600060088302620002af7fffffffffffffffffffffffffffffffffffffffffffffffffffffffffffffffff8262000270565b620002bb868362000270565b95508019841693508086168417925050509392505050565b6000819050919050565b6000819050919050565b60006200030862000302620002fc84620002d3565b620002dd565b620002d3565b9050919050565b6000819050919050565b6200032483620002e7565b6200033c62000333826200030f565b8484546200027d565b825550505050565b600090565b6200035362000344565b6200036081848462000319565b505050565b5b8181101562000388576200037c60008262000349565b60018101905062000366565b5050565b601f821115620003d757620003a1816200024b565b620003ac8462000260565b81016020851015620003bc578190505b620003d4620003cb8562000260565b83018262000365565b50505b505050565b600082821c905092915050565b6000620003fc60001984600802620003dc565b1980831691505092915050565b6000620004178383620003e9565b9150826002028217905092915050565b6200043282620001ad565b67ffffffffffffffff8111156200044e576200044d620001b8565b5b6200045a825462000216565b620004678282856200038c565b600060209050601f8311600181146200049f57600084156200048a578287015190505b62000496858262000409565b86555062000506565b601f198416620004af866200024b565b60005b82811015620004d957848901518255600182019150602085019450602081019050620004b2565b86831015620004f95784890151620004f5601f891682620003e9565b8355505b6001600288020188555050505b505050505050565b612cad806200051e6000396000f3fe608060405234801561001057600080fd5b50600436106100ea5760003560e01c806370a082311161008c578063b88d4fde11610066578063b88d4fde1461025b578063c87b56dd14610277578063d85d3d27146102a7578063e985e9c5146102c3576100ea565b806370a08231146101f157806395d89b4114610221578063a22cb4651461023f576100ea565b8063095ea7b3116100c8578063095ea7b31461016d57806323b872dd1461018957806342842e0e146101a55780636352211e146101c1576100ea565b806301ffc9a7146100ef57806306fdde031461011f578063081812fc1461013d575b600080fd5b61010960048036038101906101049190611b18565b6102f3565b6040516101169190611b60565b60405180910390f35b6101276103d5565b6040516101349190611c0b565b60405180910390f35b61015760048036038101906101529190611c63565b610467565b6040516101649190611cd1565b60405180910390f35b61018760048036038101906101829190611d18565b6104ad565b005b6101a3600480360381019061019e9190611d58565b6105c4565b005b6101bf60048036038101906101ba9190611d58565b610624565b005b6101db60048036038101906101d69190611c63565b610644565b6040516101e89190611cd1565b60405180910390f35b61020b60048036038101906102069190611dab565b6106ca565b6040516102189190611de7565b60405180910390f35b610229610781565b6040516102369190611c0b565b60405180910390f35b61025960048036038101906102549190611e2e565b610813565b005b61027560048036038101906102709190611fa3565b610829565b005b610291600480360381019061028c9190611c63565b61088b565b60405161029e9190611c0b565b60405180910390f35b6102c160048036038101906102bc91906120c7565b61099d565b005b6102dd60048036038101906102d89190612110565b610a31565b6040516102ea9190611b60565b60405180910390f35b60007f80ac58cd000000000000000000000000000000000000000000000000000000007bffffffffffffffffffffffffffffffffffffffffffffffffffffffff1916827bffffffffffffffffffffffffffffffffffffffffffffffffffffffff191614806103be57507f5b5e139f000000000000000000000000000000000000000000000000000000007bffffffffffffffffffffffffffffffffffffffffffffffffffffffff1916827bffffffffffffffffffffffffffffffffffffffffffffffffffffffff1916145b806103ce57506103cd82610ac5565b5b9050919050565b6060600080546103e49061217f565b80601f01602080910402602001604051908101604052809291908181526020018280546104109061217f565b801561045d5780601f106104325761010080835404028352916020019161045d565b820191906000526020600020905b81548152906001019060200180831161044057829003601f168201915b5050505050905090565b600061047282610b2f565b6004600083815260200190815260200160002060009054906101000a900473ffffffffffffffffffffffffffffffffffffffff169050919050565b60006104b882610644565b90508073ffffffffffffffffffffffffffffffffffffffff168373ffffffffffffffffffffffffffffffffffffffff1603610528576040517f08c379a000000000000000000000000000000000000000000000000000000000815260040161051f90612222565b60405180910390fd5b8073ffffffffffffffffffffffffffffffffffffffff16610547610b7a565b73ffffffffffffffffffffffffffffffffffffffff161480610576575061057581610570610b7a565b610a31565b5b6105b5576040517f08c379a00000000000000000000000000000000000000000000000000000000081526004016105ac906122b4565b60405180910390fd5b6105bf8383610b82565b505050565b6105d56105cf610b7a565b82610c3b565b610614576040517f08c379a000000000000000000000000000000000000000000000000000000000815260040161060b90612346565b60405180910390fd5b61061f838383610cd0565b505050565b61063f83838360405180602001604052806000815250610829565b505050565b60008061065083610fc9565b9050600073ffffffffffffffffffffffffffffffffffffffff168173ffffffffffffffffffffffffffffffffffffffff16036106c1576040517f08c379a00000000000000000000000000000000000000000000000000000000081526004016106b8906123b2565b60405180910390fd5b80915050919050565b60008073ffffffffffffffffffffffffffffffffffffffff168273ffffffffffffffffffffffffffffffffffffffff160361073a576040517f08c379a000000000000000000000000000000000000000000000000000000000815260040161073190612444565b60405180910390fd5b600360008373ffffffffffffffffffffffffffffffffffffffff1673ffffffffffffffffffffffffffffffffffffffff168152602001908152602001600020549050919050565b6060600180546107909061217f565b80601f01602080910402602001604051908101604052809291908181526020018280546107bc9061217f565b80156108095780601f106107de57610100808354040283529160200191610809565b820191906000526020600020905b8154815290600101906020018083116107ec57829003601f168201915b5050505050905090565b61082561081e610b7a565b8383611006565b5050565b61083a610834610b7a565b83610c3b565b610879576040517f08c379a000000000000000000000000000000000000000000000000000000000815260040161087090612346565b60405180910390fd5b61088584848484611172565b50505050565b606061089682610b2f565b60006006600084815260200190815260200160002080546108b69061217f565b80601f01602080910402602001604051908101604052809291908181526020018280546108e29061217f565b801561092f5780601f106109045761010080835404028352916020019161092f565b820191906000526020600020905b81548152906001019060200180831161091257829003601f168201915b5050505050905060006109406111ce565b90506000815103610955578192505050610998565b60008251111561098a5780826040516020016109729291906124a0565b60405160208183030381529060405292505050610998565b610993846111e5565b925050505b919050565b6109a7600761124d565b60006109b36007611263565b90506109bf3382611271565b6109c9818361128f565b6109f6600860009054906101000a900473ffffffffffffffffffffffffffffffffffffffff166001610813565b7fd9dc24857f317ed9abbbb42e920ede0104231eb1d3d70236a74887ffaf15986881604051610a259190611de7565b60405180910390a15050565b6000600560008473ffffffffffffffffffffffffffffffffffffffff1673ffffffffffffffffffffffffffffffffffffffff16815260200190815260200160002060008373ffffffffffffffffffffffffffffffffffffffff1673ffffffffffffffffffffffffffffffffffffffff16815260200190815260200160002060009054906101000a900460ff16905092915050565b60007f01ffc9a7000000000000000000000000000000000000000000000000000000007bffffffffffffffffffffffffffffffffffffffffffffffffffffffff1916827bffffffffffffffffffffffffffffffffffffffffffffffffffffffff1916149050919050565b610b38816112fc565b610b77576040517f08c379a0000000000000000000000000000000000000000000000000000000008152600401610b6e906123b2565b60405180910390fd5b50565b600033905090565b816004600083815260200190815260200160002060006101000a81548173ffffffffffffffffffffffffffffffffffffffff021916908373ffffffffffffffffffffffffffffffffffffffff160217905550808273ffffffffffffffffffffffffffffffffffffffff16610bf583610644565b73ffffffffffffffffffffffffffffffffffffffff167f8c5be1e5ebec7d5bd14f71427d1e84f3dd0314c0f7b2291e5b200ac8c7c3b92560405160405180910390a45050565b600080610c4783610644565b90508073ffffffffffffffffffffffffffffffffffffffff168473ffffffffffffffffffffffffffffffffffffffff161480610c895750610c888185610a31565b5b80610cc757508373ffffffffffffffffffffffffffffffffffffffff16610caf84610467565b73ffffffffffffffffffffffffffffffffffffffff16145b91505092915050565b8273ffffffffffffffffffffffffffffffffffffffff16610cf082610644565b73ffffffffffffffffffffffffffffffffffffffff1614610d46576040517f08c379a0000000000000000000000000000000000000000000000000000000008152600401610d3d90612536565b60405180910390fd5b600073ffffffffffffffffffffffffffffffffffffffff168273ffffffffffffffffffffffffffffffffffffffff1603610db5576040517f08c379a0000000000000000000000000000000000000000000000000000000008152600401610dac906125c8565b60405180910390fd5b610dc2838383600161133d565b8273ffffffffffffffffffffffffffffffffffffffff16610de282610644565b73ffffffffffffffffffffffffffffffffffffffff1614610e38576040517f08c379a0000000000000000000000000000000000000000000000000000000008152600401610e2f90612536565b60405180910390fd5b6004600082815260200190815260200160002060006101000a81549073ffffffffffffffffffffffffffffffffffffffff02191690556001600360008573ffffffffffffffffffffffffffffffffffffffff1673ffffffffffffffffffffffffffffffffffffffff168152602001908152602001600020600082825403925050819055506001600360008473ffffffffffffffffffffffffffffffffffffffff1673ffffffffffffffffffffffffffffffffffffffff16815260200190815260200160002060008282540192505081905550816002600083815260200190815260200160002060006101000a81548173ffffffffffffffffffffffffffffffffffffffff021916908373ffffffffffffffffffffffffffffffffffffffff160217905550808273ffffffffffffffffffffffffffffffffffffffff168473ffffffffffffffffffffffffffffffffffffffff167fddf252ad1be2c89b69c2b068fc378daa952ba7f163c4a11628f55a4df523b3ef60405160405180910390a4610fc48383836001611463565b505050565b60006002600083815260200190815260200160002060009054906101000a900473ffffffffffffffffffffffffffffffffffffffff169050919050565b8173ffffffffffffffffffffffffffffffffffffffff168373ffffffffffffffffffffffffffffffffffffffff1603611074576040517f08c379a000000000000000000000000000000000000000000000000000000000815260040161106b90612634565b60405180910390fd5b80600560008573ffffffffffffffffffffffffffffffffffffffff1673ffffffffffffffffffffffffffffffffffffffff16815260200190815260200160002060008473ffffffffffffffffffffffffffffffffffffffff1673ffffffffffffffffffffffffffffffffffffffff16815260200190815260200160002060006101000a81548160ff0219169083151502179055508173ffffffffffffffffffffffffffffffffffffffff168373ffffffffffffffffffffffffffffffffffffffff167f17307eab39ab6107e8899845ad3d59bd9653f200f220920489ca2b5937696c31836040516111659190611b60565b60405180910390a3505050565b61117d848484610cd0565b61118984848484611469565b6111c8576040517f08c379a00000000000000000000000000000000000000000000000000000000081526004016111bf906126c6565b60405180910390fd5b50505050565b606060405180602001604052806000815250905090565b60606111f082610b2f565b60006111fa6111ce565b9050600081511161121a5760405180602001604052806000815250611245565b80611224846115f0565b6040516020016112359291906124a0565b6040516020818303038152906040525b915050919050565b6001816000016000828254019250508190555050565b600081600001549050919050565b61128b8282604051806020016040528060008152506116be565b5050565b611298826112fc565b6112d7576040517f08c379a00000000000000000000000000000000000000000000000000000000081526004016112ce90612758565b60405180910390fd5b806006600084815260200190815260200160002090816112f79190612924565b505050565b60008073ffffffffffffffffffffffffffffffffffffffff1661131e83610fc9565b73ffffffffffffffffffffffffffffffffffffffff1614159050919050565b600181111561145d57600073ffffffffffffffffffffffffffffffffffffffff168473ffffffffffffffffffffffffffffffffffffffff16146113d15780600360008673ffffffffffffffffffffffffffffffffffffffff1673ffffffffffffffffffffffffffffffffffffffff16815260200190815260200160002060008282546113c99190612a25565b925050819055505b600073ffffffffffffffffffffffffffffffffffffffff168373ffffffffffffffffffffffffffffffffffffffff161461145c5780600360008573ffffffffffffffffffffffffffffffffffffffff1673ffffffffffffffffffffffffffffffffffffffff16815260200190815260200160002060008282546114549190612a59565b925050819055505b5b50505050565b50505050565b600061148a8473ffffffffffffffffffffffffffffffffffffffff16611719565b156115e3578373ffffffffffffffffffffffffffffffffffffffff1663150b7a026114b3610b7a565b8786866040518563ffffffff1660e01b81526004016114d59493929190612ae2565b6020604051808303816000875af192505050801561151157506040513d601f19601f8201168201806040525081019061150e9190612b43565b60015b611593573d8060008114611541576040519150601f19603f3d011682016040523d82523d6000602084013e611546565b606091505b50600081510361158b576040517f08c379a0000000000000000000000000000000000000000000000000000000008152600401611582906126c6565b60405180910390fd5b805181602001fd5b63150b7a0260e01b7bffffffffffffffffffffffffffffffffffffffffffffffffffffffff1916817bffffffffffffffffffffffffffffffffffffffffffffffffffffffff1916149150506115e8565b600190505b949350505050565b6060600060016115ff8461173c565b01905060008167ffffffffffffffff81111561161e5761161d611e78565b5b6040519080825280601f01601f1916602001820160405280156116505781602001600182028036833780820191505090505b509050600082602001820190505b6001156116b3578080600190039150507f3031323334353637383961626364656600000000000000000000000000000000600a86061a8153600a85816116a7576116a6612b70565b5b0494506000850361165e575b819350505050919050565b6116c8838361188f565b6116d56000848484611469565b611714576040517f08c379a000000000000000000000000000000000000000000000000000000000815260040161170b906126c6565b60405180910390fd5b505050565b6000808273ffffffffffffffffffffffffffffffffffffffff163b119050919050565b600080600090507a184f03e93ff9f4daa797ed6e38ed64bf6a1f010000000000000000831061179a577a184f03e93ff9f4daa797ed6e38ed64bf6a1f01000000000000000083816117905761178f612b70565b5b0492506040810190505b6d04ee2d6d415b85acef810000000083106117d7576d04ee2d6d415b85acef810000000083816117cd576117cc612b70565b5b0492506020810190505b662386f26fc10000831061180657662386f26fc1000083816117fc576117fb612b70565b5b0492506010810190505b6305f5e100831061182f576305f5e100838161182557611824612b70565b5b0492506008810190505b612710831061185457612710838161184a57611849612b70565b5b0492506004810190505b60648310611877576064838161186d5761186c612b70565b5b0492506002810190505b600a8310611886576001810190505b80915050919050565b600073ffffffffffffffffffffffffffffffffffffffff168273ffffffffffffffffffffffffffffffffffffffff16036118fe576040517f08c379a00000000000000000000000000000000000000000000000000000000081526004016118f590612beb565b60405180910390fd5b611907816112fc565b15611947576040517f08c379a000000000000000000000000000000000000000000000000000000000815260040161193e90612c57565b60405180910390fd5b61195560008383600161133d565b61195e816112fc565b1561199e576040517f08c379a000000000000000000000000000000000000000000000000000000000815260040161199590612c57565b60405180910390fd5b6001600360008473ffffffffffffffffffffffffffffffffffffffff1673ffffffffffffffffffffffffffffffffffffffff16815260200190815260200160002060008282540192505081905550816002600083815260200190815260200160002060006101000a81548173ffffffffffffffffffffffffffffffffffffffff021916908373ffffffffffffffffffffffffffffffffffffffff160217905550808273ffffffffffffffffffffffffffffffffffffffff16600073ffffffffffffffffffffffffffffffffffffffff167fddf252ad1be2c89b69c2b068fc378daa952ba7f163c4a11628f55a4df523b3ef60405160405180910390a4611aa8600083836001611463565b5050565b6000604051905090565b600080fd5b600080fd5b60007fffffffff0000000000000000000000000000000000000000000000000000000082169050919050565b611af581611ac0565b8114611b0057600080fd5b50565b600081359050611b1281611aec565b92915050565b600060208284031215611b2e57611b2d611ab6565b5b6000611b3c84828501611b03565b91505092915050565b60008115159050919050565b611b5a81611b45565b82525050565b6000602082019050611b756000830184611b51565b92915050565b600081519050919050565b600082825260208201905092915050565b60005b83811015611bb5578082015181840152602081019050611b9a565b60008484015250505050565b6000601f19601f8301169050919050565b6000611bdd82611b7b565b611be78185611b86565b9350611bf7818560208601611b97565b611c0081611bc1565b840191505092915050565b60006020820190508181036000830152611c258184611bd2565b905092915050565b6000819050919050565b611c4081611c2d565b8114611c4b57600080fd5b50565b600081359050611c5d81611c37565b92915050565b600060208284031215611c7957611c78611ab6565b5b6000611c8784828501611c4e565b91505092915050565b600073ffffffffffffffffffffffffffffffffffffffff82169050919050565b6000611cbb82611c90565b9050919050565b611ccb81611cb0565b82525050565b6000602082019050611ce66000830184611cc2565b92915050565b611cf581611cb0565b8114611d0057600080fd5b50565b600081359050611d1281611cec565b92915050565b60008060408385031215611d2f57611d2e611ab6565b5b6000611d3d85828601611d03565b9250506020611d4e85828601611c4e565b9150509250929050565b600080600060608486031215611d7157611d70611ab6565b5b6000611d7f86828701611d03565b9350506020611d9086828701611d03565b9250506040611da186828701611c4e565b9150509250925092565b600060208284031215611dc157611dc0611ab6565b5b6000611dcf84828501611d03565b91505092915050565b611de181611c2d565b82525050565b6000602082019050611dfc6000830184611dd8565b92915050565b611e0b81611b45565b8114611e1657600080fd5b50565b600081359050611e2881611e02565b92915050565b60008060408385031215611e4557611e44611ab6565b5b6000611e5385828601611d03565b9250506020611e6485828601611e19565b9150509250929050565b600080fd5b600080fd5b7f4e487b7100000000000000000000000000000000000000000000000000000000600052604160045260246000fd5b611eb082611bc1565b810181811067ffffffffffffffff82111715611ecf57611ece611e78565b5b80604052505050565b6000611ee2611aac565b9050611eee8282611ea7565b919050565b600067ffffffffffffffff821115611f0e57611f0d611e78565b5b611f1782611bc1565b9050602081019050919050565b82818337600083830152505050565b6000611f46611f4184611ef3565b611ed8565b905082815260208101848484011115611f6257611f61611e73565b5b611f6d848285611f24565b509392505050565b600082601f830112611f8a57611f89611e6e565b5b8135611f9a848260208601611f33565b91505092915050565b60008060008060808587031215611fbd57611fbc611ab6565b5b6000611fcb87828801611d03565b9450506020611fdc87828801611d03565b9350506040611fed87828801611c4e565b925050606085013567ffffffffffffffff81111561200e5761200d611abb565b5b61201a87828801611f75565b91505092959194509250565b600067ffffffffffffffff82111561204157612040611e78565b5b61204a82611bc1565b9050602081019050919050565b600061206a61206584612026565b611ed8565b90508281526020810184848401111561208657612085611e73565b5b612091848285611f24565b509392505050565b600082601f8301126120ae576120ad611e6e565b5b81356120be848260208601612057565b91505092915050565b6000602082840312156120dd576120dc611ab6565b5b600082013567ffffffffffffffff8111156120fb576120fa611abb565b5b61210784828501612099565b91505092915050565b6000806040838503121561212757612126611ab6565b5b600061213585828601611d03565b925050602061214685828601611d03565b9150509250929050565b7f4e487b7100000000000000000000000000000000000000000000000000000000600052602260045260246000fd5b6000600282049050600182168061219757607f821691505b6020821081036121aa576121a9612150565b5b50919050565b7f4552433732313a20617070726f76616c20746f2063757272656e74206f776e6560008201527f7200000000000000000000000000000000000000000000000000000000000000602082015250565b600061220c602183611b86565b9150612217826121b0565b604082019050919050565b6000602082019050818103600083015261223b816121ff565b9050919050565b7f4552433732313a20617070726f76652063616c6c6572206973206e6f7420746f60008201527f6b656e206f776e6572206f7220617070726f76656420666f7220616c6c000000602082015250565b600061229e603d83611b86565b91506122a982612242565b604082019050919050565b600060208201905081810360008301526122cd81612291565b9050919050565b7f4552433732313a2063616c6c6572206973206e6f7420746f6b656e206f776e6560008201527f72206f7220617070726f76656400000000000000000000000000000000000000602082015250565b6000612330602d83611b86565b915061233b826122d4565b604082019050919050565b6000602082019050818103600083015261235f81612323565b9050919050565b7f4552433732313a20696e76616c696420746f6b656e2049440000000000000000600082015250565b600061239c601883611b86565b91506123a782612366565b602082019050919050565b600060208201905081810360008301526123cb8161238f565b9050919050565b7f4552433732313a2061646472657373207a65726f206973206e6f74206120766160008201527f6c6964206f776e65720000000000000000000000000000000000000000000000602082015250565b600061242e602983611b86565b9150612439826123d2565b604082019050919050565b6000602082019050818103600083015261245d81612421565b9050919050565b600081905092915050565b600061247a82611b7b565b6124848185612464565b9350612494818560208601611b97565b80840191505092915050565b60006124ac828561246f565b91506124b8828461246f565b91508190509392505050565b7f4552433732313a207472616e736665722066726f6d20696e636f72726563742060008201527f6f776e6572000000000000000000000000000000000000000000000000000000602082015250565b6000612520602583611b86565b915061252b826124c4565b604082019050919050565b6000602082019050818103600083015261254f81612513565b9050919050565b7f4552433732313a207472616e7366657220746f20746865207a65726f2061646460008201527f7265737300000000000000000000000000000000000000000000000000000000602082015250565b60006125b2602483611b86565b91506125bd82612556565b604082019050919050565b600060208201905081810360008301526125e1816125a5565b9050919050565b7f4552433732313a20617070726f766520746f2063616c6c657200000000000000600082015250565b600061261e601983611b86565b9150612629826125e8565b602082019050919050565b6000602082019050818103600083015261264d81612611565b9050919050565b7f4552433732313a207472616e7366657220746f206e6f6e20455243373231526560008201527f63656976657220696d706c656d656e7465720000000000000000000000000000602082015250565b60006126b0603283611b86565b91506126bb82612654565b604082019050919050565b600060208201905081810360008301526126df816126a3565b9050919050565b7f45524337323155524953746f726167653a2055524920736574206f66206e6f6e60008201527f6578697374656e7420746f6b656e000000000000000000000000000000000000602082015250565b6000612742602e83611b86565b915061274d826126e6565b604082019050919050565b6000602082019050818103600083015261277181612735565b9050919050565b60008190508160005260206000209050919050565b60006020601f8301049050919050565b600082821b905092915050565b6000600883026127da7fffffffffffffffffffffffffffffffffffffffffffffffffffffffffffffffff8261279d565b6127e4868361279d565b95508019841693508086168417925050509392505050565b6000819050919050565b600061282161281c61281784611c2d565b6127fc565b611c2d565b9050919050565b6000819050919050565b61283b83612806565b61284f61284782612828565b8484546127aa565b825550505050565b600090565b612864612857565b61286f818484612832565b505050565b5b818110156128935761288860008261285c565b600181019050612875565b5050565b601f8211156128d8576128a981612778565b6128b28461278d565b810160208510156128c1578190505b6128d56128cd8561278d565b830182612874565b50505b505050565b600082821c905092915050565b60006128fb600019846008026128dd565b1980831691505092915050565b600061291483836128ea565b9150826002028217905092915050565b61292d82611b7b565b67ffffffffffffffff81111561294657612945611e78565b5b612950825461217f565b61295b828285612897565b600060209050601f83116001811461298e576000841561297c578287015190505b6129868582612908565b8655506129ee565b601f19841661299c86612778565b60005b828110156129c45784890151825560018201915060208501945060208101905061299f565b868310156129e157848901516129dd601f8916826128ea565b8355505b6001600288020188555050505b505050505050565b7f4e487b7100000000000000000000000000000000000000000000000000000000600052601160045260246000fd5b6000612a3082611c2d565b9150612a3b83611c2d565b9250828203905081811115612a5357612a526129f6565b5b92915050565b6000612a6482611c2d565b9150612a6f83611c2d565b9250828201905080821115612a8757612a866129f6565b5b92915050565b600081519050919050565b600082825260208201905092915050565b6000612ab482612a8d565b612abe8185612a98565b9350612ace818560208601611b97565b612ad781611bc1565b840191505092915050565b6000608082019050612af76000830187611cc2565b612b046020830186611cc2565b612b116040830185611dd8565b8181036060830152612b238184612aa9565b905095945050505050565b600081519050612b3d81611aec565b92915050565b600060208284031215612b5957612b58611ab6565b5b6000612b6784828501612b2e565b91505092915050565b7f4e487b7100000000000000000000000000000000000000000000000000000000600052601260045260246000fd5b7f4552433732313a206d696e7420746f20746865207a65726f2061646472657373600082015250565b6000612bd5602083611b86565b9150612be082612b9f565b602082019050919050565b60006020820190508181036000830152612c0481612bc8565b9050919050565b7f4552433732313a20746f6b656e20616c7265616479206d696e74656400000000600082015250565b6000612c41601c83611b86565b9150612c4c82612c0b565b602082019050919050565b60006020820190508181036000830152612c7081612c34565b905091905056fea26469706673582212208091fcfa02b64ab5a0aaeb859600a2b4343a1b20f7977a50d4e8ebb168473dfb64736f6c63430008110033",
  "immutableReferences": {},
  "source": "// SPDX-License-Identifier: MIT\r\npragma solidity ^0.8.13;\r\n\r\nimport \"@openzeppelin/contracts/token/ERC721/ERC721.sol\";\r\nimport \"@openzeppelin/contracts/token/ERC721/extensions/ERC721URIStorage.sol\";\r\nimport \"@openzeppelin/contracts/utils/Counters.sol\";\r\n\r\ncontract NFT is ERC721URIStorage {\r\n    using Counters for Counters.Counter;\r\n    Counters.Counter private _tokenIds;\r\n    address marketplaceContract;\r\n    event NFTMinted(uint256);\r\n\r\n    constructor(address _marketplaceContract) ERC721(\"Desamplr\", \"DSMPL\") {\r\n        marketplaceContract = _marketplaceContract;\r\n    }\r\n\r\n    function mint(string memory _tokenURI) public {\r\n        _tokenIds.increment();\r\n        uint256 newTokenId = _tokenIds.current();\r\n        _safeMint(msg.sender, newTokenId);\r\n        _setTokenURI(newTokenId, _tokenURI);\r\n        setApprovalForAll(marketplaceContract, true);\r\n        emit NFTMinted(newTokenId);\r\n    }\r\n}\r\n",
  "sourcePath": "C:\\Users\\chris\\radio3\\radio3-mui\\smart-contracts\\contracts\\NFT.sol",
  "compiler": {
    "name": "solc",
    "version": "0.8.17+commit.8df45f5f.Emscripten.clang"
  },
  "schemaVersion": "3.4.11",
  "updatedAt": "2023-01-12T21:53:51.674Z",
  "networkType": "ethereum",
  "devdoc": {
    "kind": "dev",
    "methods": {
      "approve(address,uint256)": {
        "details": "See {IERC721-approve}."
      },
      "balanceOf(address)": {
        "details": "See {IERC721-balanceOf}."
      },
      "getApproved(uint256)": {
        "details": "See {IERC721-getApproved}."
      },
      "isApprovedForAll(address,address)": {
        "details": "See {IERC721-isApprovedForAll}."
      },
      "name()": {
        "details": "See {IERC721Metadata-name}."
      },
      "ownerOf(uint256)": {
        "details": "See {IERC721-ownerOf}."
      },
      "safeTransferFrom(address,address,uint256)": {
        "details": "See {IERC721-safeTransferFrom}."
      },
      "safeTransferFrom(address,address,uint256,bytes)": {
        "details": "See {IERC721-safeTransferFrom}."
      },
      "setApprovalForAll(address,bool)": {
        "details": "See {IERC721-setApprovalForAll}."
      },
      "supportsInterface(bytes4)": {
        "details": "See {IERC165-supportsInterface}."
      },
      "symbol()": {
        "details": "See {IERC721Metadata-symbol}."
      },
      "tokenURI(uint256)": {
        "details": "See {IERC721Metadata-tokenURI}."
      },
      "transferFrom(address,address,uint256)": {
        "details": "See {IERC721-transferFrom}."
      }
    },
    "version": 1
  },
  "userdoc": {
    "kind": "user",
    "methods": {},
    "version": 1
  }
}