{
  "contractName": "Radio",
  "abi": [
    {
      "inputs": [],
      "stateMutability": "nonpayable",
      "type": "constructor"
    },
    {
      "anonymous": false,
      "inputs": [
        {
          "indexed": false,
          "internalType": "address",
          "name": "nftContract",
          "type": "address"
        },
        {
          "indexed": false,
          "internalType": "uint256",
          "name": "tokenId",
          "type": "uint256"
        },
        {
          "indexed": false,
          "internalType": "address",
          "name": "seller",
          "type": "address"
        },
        {
          "indexed": false,
          "internalType": "address",
          "name": "owner",
          "type": "address"
        }
      ],
      "name": "NFTDeleted",
      "type": "event"
    },
    {
      "anonymous": false,
      "inputs": [
        {
          "indexed": false,
          "internalType": "address",
          "name": "nftContract",
          "type": "address"
        },
        {
          "indexed": false,
          "internalType": "uint256",
          "name": "tokenId",
          "type": "uint256"
        },
        {
          "indexed": false,
          "internalType": "address",
          "name": "seller",
          "type": "address"
        },
        {
          "indexed": false,
          "internalType": "address",
          "name": "owner",
          "type": "address"
        }
      ],
      "name": "NFTListed",
      "type": "event"
    },
    {
      "anonymous": false,
      "inputs": [
        {
          "indexed": false,
          "internalType": "address",
          "name": "nftContract",
          "type": "address"
        },
        {
          "indexed": false,
          "internalType": "uint256",
          "name": "tokenId",
          "type": "uint256"
        },
        {
          "indexed": false,
          "internalType": "address",
          "name": "seller",
          "type": "address"
        },
        {
          "indexed": false,
          "internalType": "address",
          "name": "owner",
          "type": "address"
        }
      ],
      "name": "NFTSold",
      "type": "event"
    },
    {
      "inputs": [
        {
          "internalType": "uint256",
          "name": "_tokenId",
          "type": "uint256"
        },
        {
          "internalType": "uint256",
          "name": "_heatCount",
          "type": "uint256"
        }
      ],
      "name": "giveHeat",
      "outputs": [],
      "stateMutability": "payable",
      "type": "function",
      "payable": true
    },
    {
      "inputs": [
        {
          "internalType": "uint256",
          "name": "_tokenId",
          "type": "uint256"
        }
      ],
      "name": "deleteNft",
      "outputs": [],
      "stateMutability": "nonpayable",
      "type": "function"
    },
    {
      "inputs": [
        {
          "internalType": "address",
          "name": "_nftContract",
          "type": "address"
        },
        {
          "internalType": "uint256",
          "name": "_tokenId",
          "type": "uint256"
        }
      ],
      "name": "listNft",
      "outputs": [],
      "stateMutability": "payable",
      "type": "function",
      "payable": true
    },
    {
      "inputs": [],
      "name": "getListedNfts",
      "outputs": [
        {
          "components": [
            {
              "internalType": "address",
              "name": "nftContract",
              "type": "address"
            },
            {
              "internalType": "uint256",
              "name": "tokenId",
              "type": "uint256"
            },
            {
              "internalType": "address payable",
              "name": "seller",
              "type": "address"
            },
            {
              "internalType": "address payable",
              "name": "owner",
              "type": "address"
            },
            {
              "internalType": "bool",
              "name": "listed",
              "type": "bool"
            },
            {
              "internalType": "uint256",
              "name": "heatCount",
              "type": "uint256"
            }
          ],
          "internalType": "struct Radio.NFT[]",
          "name": "",
          "type": "tuple[]"
        }
      ],
      "stateMutability": "view",
      "type": "function",
      "constant": true
    },
    {
      "inputs": [],
      "name": "getMyNfts",
      "outputs": [
        {
          "components": [
            {
              "internalType": "address",
              "name": "nftContract",
              "type": "address"
            },
            {
              "internalType": "uint256",
              "name": "tokenId",
              "type": "uint256"
            },
            {
              "internalType": "address payable",
              "name": "seller",
              "type": "address"
            },
            {
              "internalType": "address payable",
              "name": "owner",
              "type": "address"
            },
            {
              "internalType": "bool",
              "name": "listed",
              "type": "bool"
            },
            {
              "internalType": "uint256",
              "name": "heatCount",
              "type": "uint256"
            }
          ],
          "internalType": "struct Radio.NFT[]",
          "name": "",
          "type": "tuple[]"
        }
      ],
      "stateMutability": "view",
      "type": "function",
      "constant": true
    },
    {
      "inputs": [],
      "name": "getMyListedNfts",
      "outputs": [
        {
          "components": [
            {
              "internalType": "address",
              "name": "nftContract",
              "type": "address"
            },
            {
              "internalType": "uint256",
              "name": "tokenId",
              "type": "uint256"
            },
            {
              "internalType": "address payable",
              "name": "seller",
              "type": "address"
            },
            {
              "internalType": "address payable",
              "name": "owner",
              "type": "address"
            },
            {
              "internalType": "bool",
              "name": "listed",
              "type": "bool"
            },
            {
              "internalType": "uint256",
              "name": "heatCount",
              "type": "uint256"
            }
          ],
          "internalType": "struct Radio.NFT[]",
          "name": "",
          "type": "tuple[]"
        }
      ],
      "stateMutability": "view",
      "type": "function",
      "constant": true
    }
  ],
  "bytecode": "0x608060405234801561001057600080fd5b50600160008190555033600360006101000a81548173ffffffffffffffffffffffffffffffffffffffff021916908373ffffffffffffffffffffffffffffffffffffffff160217905550611844806100696000396000f3fe6080604052600436106100555760003560e01c8063047b07bf1461005a578063192027eb146100855780631f4cc4db146100a1578063414758d5146100cc5780638d6cb3fb146100e8578063f6b157a814610113575b600080fd5b34801561006657600080fd5b5061006f61013c565b60405161007c91906112ec565b60405180910390f35b61009f600480360381019061009a919061136b565b61046f565b005b3480156100ad57600080fd5b506100b66106cb565b6040516100c391906112ec565b60405180910390f35b6100e660048036038101906100e191906113ab565b610a70565b005b3480156100f457600080fd5b506100fd610b63565b60405161010a91906112ec565b60405180910390f35b34801561011f57600080fd5b5061013a600480360381019061013591906113eb565b610dcb565b005b6060600061014a6002611035565b90506000805b828110156101ef573373ffffffffffffffffffffffffffffffffffffffff16600460006001846101809190611447565b815260200190815260200160002060030160009054906101000a900473ffffffffffffffffffffffffffffffffffffffff1673ffffffffffffffffffffffffffffffffffffffff16036101dc5781806101d89061147b565b9250505b80806101e79061147b565b915050610150565b5060008167ffffffffffffffff81111561020c5761020b6114c3565b5b60405190808252806020026020018201604052801561024557816020015b6102326110b2565b81526020019060019003908161022a5790505b5090506000805b84811015610464573373ffffffffffffffffffffffffffffffffffffffff166004600060018461027c9190611447565b815260200190815260200160002060030160009054906101000a900473ffffffffffffffffffffffffffffffffffffffff1673ffffffffffffffffffffffffffffffffffffffff160361045157600460006001836102da9190611447565b81526020019081526020016000206040518060c00160405290816000820160009054906101000a900473ffffffffffffffffffffffffffffffffffffffff1673ffffffffffffffffffffffffffffffffffffffff1673ffffffffffffffffffffffffffffffffffffffff168152602001600182015481526020016002820160009054906101000a900473ffffffffffffffffffffffffffffffffffffffff1673ffffffffffffffffffffffffffffffffffffffff1673ffffffffffffffffffffffffffffffffffffffff1681526020016003820160009054906101000a900473ffffffffffffffffffffffffffffffffffffffff1673ffffffffffffffffffffffffffffffffffffffff1673ffffffffffffffffffffffffffffffffffffffff1681526020016003820160149054906101000a900460ff16151515158152602001600482015481525050838381518110610437576104366114f2565b5b6020026020010181905250818061044d9061147b565b9250505b808061045c9061147b565b91505061024c565b508194505050505090565b610477611043565b8173ffffffffffffffffffffffffffffffffffffffff166323b872dd3330846040518463ffffffff1660e01b81526004016104b49392919061153f565b600060405180830381600087803b1580156104ce57600080fd5b505af11580156104e2573d6000803e3d6000fd5b505050506104f06002611092565b6040518060c001604052808373ffffffffffffffffffffffffffffffffffffffff1681526020018281526020013373ffffffffffffffffffffffffffffffffffffffff1681526020013073ffffffffffffffffffffffffffffffffffffffff16815260200160011515815260200160008152506004600083815260200190815260200160002060008201518160000160006101000a81548173ffffffffffffffffffffffffffffffffffffffff021916908373ffffffffffffffffffffffffffffffffffffffff1602179055506020820151816001015560408201518160020160006101000a81548173ffffffffffffffffffffffffffffffffffffffff021916908373ffffffffffffffffffffffffffffffffffffffff16021790555060608201518160030160006101000a81548173ffffffffffffffffffffffffffffffffffffffff021916908373ffffffffffffffffffffffffffffffffffffffff16021790555060808201518160030160146101000a81548160ff02191690831515021790555060a082015181600401559050507f232534bbd51d7cde87652214a8c8454ac134ea309ff79aed199c676bebca94b9828233306040516106b79493929190611576565b60405180910390a16106c76110a8565b5050565b606060006106d96002611035565b90506000805b828110156107b7573373ffffffffffffffffffffffffffffffffffffffff166004600060018461070f9190611447565b815260200190815260200160002060020160009054906101000a900473ffffffffffffffffffffffffffffffffffffffff1673ffffffffffffffffffffffffffffffffffffffff161480156107905750600460006001836107709190611447565b815260200190815260200160002060030160149054906101000a900460ff165b156107a45781806107a09061147b565b9250505b80806107af9061147b565b9150506106df565b5060008167ffffffffffffffff8111156107d4576107d36114c3565b5b60405190808252806020026020018201604052801561080d57816020015b6107fa6110b2565b8152602001906001900390816107f25790505b5090506000805b84811015610a65573373ffffffffffffffffffffffffffffffffffffffff16600460006001846108449190611447565b815260200190815260200160002060020160009054906101000a900473ffffffffffffffffffffffffffffffffffffffff1673ffffffffffffffffffffffffffffffffffffffff161480156108c55750600460006001836108a59190611447565b815260200190815260200160002060030160149054906101000a900460ff165b15610a5257600460006001836108db9190611447565b81526020019081526020016000206040518060c00160405290816000820160009054906101000a900473ffffffffffffffffffffffffffffffffffffffff1673ffffffffffffffffffffffffffffffffffffffff1673ffffffffffffffffffffffffffffffffffffffff168152602001600182015481526020016002820160009054906101000a900473ffffffffffffffffffffffffffffffffffffffff1673ffffffffffffffffffffffffffffffffffffffff1673ffffffffffffffffffffffffffffffffffffffff1681526020016003820160009054906101000a900473ffffffffffffffffffffffffffffffffffffffff1673ffffffffffffffffffffffffffffffffffffffff1673ffffffffffffffffffffffffffffffffffffffff1681526020016003820160149054906101000a900460ff16151515158152602001600482015481525050838381518110610a3857610a376114f2565b5b60200260200101819052508180610a4e9061147b565b9250505b8080610a5d9061147b565b915050610814565b508194505050505090565b60006004600084815260200190815260200160002090508060030160149054906101000a900460ff16610ad8576040517f08c379a0000000000000000000000000000000000000000000000000000000008152600401610acf90611618565b60405180910390fd5b8060020160009054906101000a900473ffffffffffffffffffffffffffffffffffffffff1673ffffffffffffffffffffffffffffffffffffffff166108fc839081150290604051600060405180830381858888f19350505050158015610b42573d6000803e3d6000fd5b5081816004016000828254610b579190611447565b92505081905550505050565b60606000610b716002611035565b90506000610b7f6001611035565b82610b8a9190611638565b905060008167ffffffffffffffff811115610ba857610ba76114c3565b5b604051908082528060200260200182016040528015610be157816020015b610bce6110b2565b815260200190600190039081610bc65790505b5090506000805b84811015610dc05760046000600183610c019190611447565b815260200190815260200160002060030160149054906101000a900460ff1615610dad5760046000600183610c369190611447565b81526020019081526020016000206040518060c00160405290816000820160009054906101000a900473ffffffffffffffffffffffffffffffffffffffff1673ffffffffffffffffffffffffffffffffffffffff1673ffffffffffffffffffffffffffffffffffffffff168152602001600182015481526020016002820160009054906101000a900473ffffffffffffffffffffffffffffffffffffffff1673ffffffffffffffffffffffffffffffffffffffff1673ffffffffffffffffffffffffffffffffffffffff1681526020016003820160009054906101000a900473ffffffffffffffffffffffffffffffffffffffff1673ffffffffffffffffffffffffffffffffffffffff1673ffffffffffffffffffffffffffffffffffffffff1681526020016003820160149054906101000a900460ff16151515158152602001600482015481525050838381518110610d9357610d926114f2565b5b60200260200101819052508180610da99061147b565b9250505b8080610db89061147b565b915050610be8565b508194505050505090565b610dd3611043565b60006004600083815260200190815260200160002090508060030160149054906101000a900460ff16610e3b576040517f08c379a0000000000000000000000000000000000000000000000000000000008152600401610e3290611618565b60405180910390fd5b3373ffffffffffffffffffffffffffffffffffffffff168160020160009054906101000a900473ffffffffffffffffffffffffffffffffffffffff1673ffffffffffffffffffffffffffffffffffffffff1614610ecd576040517f08c379a0000000000000000000000000000000000000000000000000000000008152600401610ec4906116de565b60405180910390fd5b60046000838152602001908152602001600020600080820160006101000a81549073ffffffffffffffffffffffffffffffffffffffff021916905560018201600090556002820160006101000a81549073ffffffffffffffffffffffffffffffffffffffff02191690556003820160006101000a81549073ffffffffffffffffffffffffffffffffffffffff02191690556003820160146101000a81549060ff0219169055600482016000905550507f48359e48a1f5ed61bd9a9b6a18ff557528271bcb297f07813c282639197d138b8160000160009054906101000a900473ffffffffffffffffffffffffffffffffffffffff1682600101548360020160009054906101000a900473ffffffffffffffffffffffffffffffffffffffff168460030160009054906101000a900473ffffffffffffffffffffffffffffffffffffffff16604051611021949392919061175d565b60405180910390a1506110326110a8565b50565b600081600001549050919050565b600260005403611088576040517f08c379a000000000000000000000000000000000000000000000000000000000815260040161107f906117ee565b60405180910390fd5b6002600081905550565b6001816000016000828254019250508190555050565b6001600081905550565b6040518060c00160405280600073ffffffffffffffffffffffffffffffffffffffff16815260200160008152602001600073ffffffffffffffffffffffffffffffffffffffff168152602001600073ffffffffffffffffffffffffffffffffffffffff168152602001600015158152602001600081525090565b600081519050919050565b600082825260208201905092915050565b6000819050602082019050919050565b600073ffffffffffffffffffffffffffffffffffffffff82169050919050565b600061118382611158565b9050919050565b61119381611178565b82525050565b6000819050919050565b6111ac81611199565b82525050565b60006111bd82611158565b9050919050565b6111cd816111b2565b82525050565b60008115159050919050565b6111e8816111d3565b82525050565b60c082016000820151611204600085018261118a565b50602082015161121760208501826111a3565b50604082015161122a60408501826111c4565b50606082015161123d60608501826111c4565b50608082015161125060808501826111df565b5060a082015161126360a08501826111a3565b50505050565b600061127583836111ee565b60c08301905092915050565b6000602082019050919050565b60006112998261112c565b6112a38185611137565b93506112ae83611148565b8060005b838110156112df5781516112c68882611269565b97506112d183611281565b9250506001810190506112b2565b5085935050505092915050565b60006020820190508181036000830152611306818461128e565b905092915050565b600080fd5b61131c81611178565b811461132757600080fd5b50565b60008135905061133981611313565b92915050565b61134881611199565b811461135357600080fd5b50565b6000813590506113658161133f565b92915050565b600080604083850312156113825761138161130e565b5b60006113908582860161132a565b92505060206113a185828601611356565b9150509250929050565b600080604083850312156113c2576113c161130e565b5b60006113d085828601611356565b92505060206113e185828601611356565b9150509250929050565b6000602082840312156114015761140061130e565b5b600061140f84828501611356565b91505092915050565b7f4e487b7100000000000000000000000000000000000000000000000000000000600052601160045260246000fd5b600061145282611199565b915061145d83611199565b925082820190508082111561147557611474611418565b5b92915050565b600061148682611199565b91507fffffffffffffffffffffffffffffffffffffffffffffffffffffffffffffffff82036114b8576114b7611418565b5b600182019050919050565b7f4e487b7100000000000000000000000000000000000000000000000000000000600052604160045260246000fd5b7f4e487b7100000000000000000000000000000000000000000000000000000000600052603260045260246000fd5b61152a81611178565b82525050565b61153981611199565b82525050565b60006060820190506115546000830186611521565b6115616020830185611521565b61156e6040830184611530565b949350505050565b600060808201905061158b6000830187611521565b6115986020830186611530565b6115a56040830185611521565b6115b26060830184611521565b95945050505050565b600082825260208201905092915050565b7f4e4654206973206e6f74206c6973746564000000000000000000000000000000600082015250565b60006116026011836115bb565b915061160d826115cc565b602082019050919050565b60006020820190508181036000830152611631816115f5565b9050919050565b600061164382611199565b915061164e83611199565b925082820390508181111561166657611665611418565b5b92915050565b7f4f6e6c79207468652073656c6c65722063616e2064656c65746520746865204e60008201527f4654000000000000000000000000000000000000000000000000000000000000602082015250565b60006116c86022836115bb565b91506116d38261166c565b604082019050919050565b600060208201905081810360008301526116f7816116bb565b9050919050565b6000819050919050565b600061172361171e61171984611158565b6116fe565b611158565b9050919050565b600061173582611708565b9050919050565b60006117478261172a565b9050919050565b6117578161173c565b82525050565b60006080820190506117726000830187611521565b61177f6020830186611530565b61178c604083018561174e565b611799606083018461174e565b95945050505050565b7f5265656e7472616e637947756172643a207265656e7472616e742063616c6c00600082015250565b60006117d8601f836115bb565b91506117e3826117a2565b602082019050919050565b60006020820190508181036000830152611807816117cb565b905091905056fea26469706673582212207af9821f47680c17a7779516f34d73f8bb09f3d4c1140418d39df0a3956f739c64736f6c63430008110033",
  "immutableReferences": {},
  "source": "// SPDX-License-Identifier: MIT\r\npragma solidity ^0.8.13;\r\n\r\nimport \"@openzeppelin/contracts/utils/Counters.sol\";\r\nimport \"@openzeppelin/contracts/token/ERC721/ERC721.sol\";\r\nimport \"@openzeppelin/contracts/security/ReentrancyGuard.sol\";\r\n\r\ncontract Radio is ReentrancyGuard {\r\n    using Counters for Counters.Counter;\r\n    Counters.Counter private _nftsSold;\r\n    Counters.Counter private _nftCount;\r\n\r\n    address payable private _marketOwner;\r\n    mapping(uint256 => NFT) private _idToNFT;\r\n\r\n    struct NFT {\r\n        address nftContract;\r\n        uint256 tokenId;\r\n        address payable seller;\r\n        address payable owner;\r\n        bool listed;\r\n        uint256 heatCount;\r\n    }\r\n\r\n    event NFTListed(\r\n        address nftContract,\r\n        uint256 tokenId,\r\n        address seller,\r\n        address owner\r\n    );\r\n\r\n    event NFTSold(\r\n        address nftContract,\r\n        uint256 tokenId,\r\n        address seller,\r\n        address owner\r\n    );\r\n\r\n    event NFTDeleted(\r\n        address nftContract,\r\n        uint256 tokenId,\r\n        address seller,\r\n        address owner\r\n    );\r\n\r\n    constructor() {\r\n        _marketOwner = payable(msg.sender);\r\n    }\r\n\r\n    function giveHeat(uint256 _tokenId, uint256 _heatCount) public payable {\r\n        // Ensure that the NFT exists and is listed\r\n        NFT storage nft = _idToNFT[_tokenId];\r\n        require(nft.listed, \"NFT is not listed\");\r\n\r\n        // Send the heatCount amount of ETH to the seller's address\r\n        nft.seller.transfer(_heatCount);\r\n\r\n        // Increment the heatCount of the NFT by the given amount\r\n        nft.heatCount += _heatCount;\r\n    }\r\n\r\n    function deleteNft(uint256 _tokenId) public nonReentrant {\r\n        // Ensure that the NFT exists and is listed\r\n        NFT storage nft = _idToNFT[_tokenId];\r\n        require(nft.listed, \"NFT is not listed\");\r\n\r\n        // Ensure that the seller of the NFT is the one calling this function\r\n        require(nft.seller == msg.sender, \"Only the seller can delete the NFT\");\r\n\r\n        // Remove the NFT from the marketplace\r\n        delete _idToNFT[_tokenId];\r\n\r\n        emit NFTDeleted(nft.nftContract, nft.tokenId, nft.seller, nft.owner);\r\n    }\r\n\r\n    // List the NFT on the marketplace\r\n    function listNft(address _nftContract, uint256 _tokenId)\r\n        public\r\n        payable\r\n        nonReentrant\r\n    {\r\n        IERC721(_nftContract).transferFrom(msg.sender, address(this), _tokenId);\r\n\r\n        _nftCount.increment();\r\n\r\n        _idToNFT[_tokenId] = NFT(\r\n            _nftContract,\r\n            _tokenId,\r\n            payable(msg.sender),\r\n            payable(address(this)),\r\n            true,\r\n            0\r\n        );\r\n\r\n        emit NFTListed(_nftContract, _tokenId, msg.sender, address(this));\r\n    }\r\n\r\n    function getListedNfts() public view returns (NFT[] memory) {\r\n        uint256 nftCount = _nftCount.current();\r\n        uint256 unsoldNftsCount = nftCount - _nftsSold.current();\r\n\r\n        NFT[] memory nfts = new NFT[](unsoldNftsCount);\r\n        uint256 nftsIndex = 0;\r\n        for (uint256 i = 0; i < nftCount; i++) {\r\n            if (_idToNFT[i + 1].listed) {\r\n                nfts[nftsIndex] = _idToNFT[i + 1];\r\n                nftsIndex++;\r\n            }\r\n        }\r\n        return nfts;\r\n    }\r\n\r\n    function getMyNfts() public view returns (NFT[] memory) {\r\n        uint256 nftCount = _nftCount.current();\r\n        uint256 myNftCount = 0;\r\n        for (uint256 i = 0; i < nftCount; i++) {\r\n            if (_idToNFT[i + 1].owner == msg.sender) {\r\n                myNftCount++;\r\n            }\r\n        }\r\n\r\n        NFT[] memory nfts = new NFT[](myNftCount);\r\n        uint256 nftsIndex = 0;\r\n        for (uint256 i = 0; i < nftCount; i++) {\r\n            if (_idToNFT[i + 1].owner == msg.sender) {\r\n                nfts[nftsIndex] = _idToNFT[i + 1];\r\n                nftsIndex++;\r\n            }\r\n        }\r\n        return nfts;\r\n    }\r\n\r\n    function getMyListedNfts() public view returns (NFT[] memory) {\r\n        uint256 nftCount = _nftCount.current();\r\n        uint256 myListedNftCount = 0;\r\n        for (uint256 i = 0; i < nftCount; i++) {\r\n            if (\r\n                _idToNFT[i + 1].seller == msg.sender && _idToNFT[i + 1].listed\r\n            ) {\r\n                myListedNftCount++;\r\n            }\r\n        }\r\n\r\n        NFT[] memory nfts = new NFT[](myListedNftCount);\r\n        uint256 nftsIndex = 0;\r\n        for (uint256 i = 0; i < nftCount; i++) {\r\n            if (\r\n                _idToNFT[i + 1].seller == msg.sender && _idToNFT[i + 1].listed\r\n            ) {\r\n                nfts[nftsIndex] = _idToNFT[i + 1];\r\n                nftsIndex++;\r\n            }\r\n        }\r\n        return nfts;\r\n    }\r\n}\r\n",
  "sourcePath": "C:\\Users\\chris\\radio3\\radio3-mui\\smart-contracts\\contracts\\Radio.sol",
  "compiler": {
    "name": "solc",
    "version": "0.8.17+commit.8df45f5f.Emscripten.clang"
  },
  "schemaVersion": "3.4.11",
  "updatedAt": "2023-01-09T15:25:56.440Z",
  "networkType": "ethereum",
  "devdoc": {
    "kind": "dev",
    "methods": {},
    "version": 1
  },
  "userdoc": {
    "kind": "user",
    "methods": {},
    "version": 1
  }
}