{
  "contractName": "Radio",
  "abi": [
    {
      "inputs": [],
      "stateMutability": "nonpayable",
      "type": "constructor"
    },
    {
      "anonymous": false,
      "inputs": [
        {
          "indexed": false,
          "internalType": "address",
          "name": "nftContract",
          "type": "address"
        },
        {
          "indexed": false,
          "internalType": "uint256",
          "name": "tokenId",
          "type": "uint256"
        },
        {
          "indexed": false,
          "internalType": "address",
          "name": "seller",
          "type": "address"
        },
        {
          "indexed": false,
          "internalType": "address",
          "name": "owner",
          "type": "address"
        }
      ],
      "name": "NFTDeleted",
      "type": "event"
    },
    {
      "anonymous": false,
      "inputs": [
        {
          "indexed": false,
          "internalType": "address",
          "name": "nftContract",
          "type": "address"
        },
        {
          "indexed": false,
          "internalType": "uint256",
          "name": "tokenId",
          "type": "uint256"
        },
        {
          "indexed": false,
          "internalType": "address",
          "name": "seller",
          "type": "address"
        },
        {
          "indexed": false,
          "internalType": "address",
          "name": "owner",
          "type": "address"
        }
      ],
      "name": "NFTListed",
      "type": "event"
    },
    {
      "anonymous": false,
      "inputs": [
        {
          "indexed": false,
          "internalType": "address",
          "name": "nftContract",
          "type": "address"
        },
        {
          "indexed": false,
          "internalType": "uint256",
          "name": "tokenId",
          "type": "uint256"
        },
        {
          "indexed": false,
          "internalType": "address",
          "name": "seller",
          "type": "address"
        },
        {
          "indexed": false,
          "internalType": "address",
          "name": "owner",
          "type": "address"
        }
      ],
      "name": "NFTSold",
      "type": "event"
    },
    {
      "inputs": [
        {
          "internalType": "uint256",
          "name": "_tokenId",
          "type": "uint256"
        },
        {
          "internalType": "uint256",
          "name": "_heatCount",
          "type": "uint256"
        }
      ],
      "name": "giveHeat",
      "outputs": [],
      "stateMutability": "payable",
      "type": "function",
      "payable": true
    },
    {
      "inputs": [
        {
          "internalType": "uint256",
          "name": "_tokenId",
          "type": "uint256"
        }
      ],
      "name": "deleteNft",
      "outputs": [],
      "stateMutability": "nonpayable",
      "type": "function"
    },
    {
      "inputs": [
        {
          "internalType": "address",
          "name": "_nftContract",
          "type": "address"
        },
        {
          "internalType": "uint256",
          "name": "_tokenId",
          "type": "uint256"
        }
      ],
      "name": "listNft",
      "outputs": [],
      "stateMutability": "payable",
      "type": "function",
      "payable": true
    },
    {
      "inputs": [],
      "name": "getListedNfts",
      "outputs": [
        {
          "components": [
            {
              "internalType": "address",
              "name": "nftContract",
              "type": "address"
            },
            {
              "internalType": "uint256",
              "name": "tokenId",
              "type": "uint256"
            },
            {
              "internalType": "address payable",
              "name": "seller",
              "type": "address"
            },
            {
              "internalType": "address payable",
              "name": "owner",
              "type": "address"
            },
            {
              "internalType": "bool",
              "name": "listed",
              "type": "bool"
            },
            {
              "internalType": "uint256",
              "name": "heatCount",
              "type": "uint256"
            },
            {
              "internalType": "string",
              "name": "genre",
              "type": "string"
            }
          ],
          "internalType": "struct Radio.NFT[]",
          "name": "",
          "type": "tuple[]"
        }
      ],
      "stateMutability": "view",
      "type": "function",
      "constant": true
    },
    {
      "inputs": [],
      "name": "getMyNfts",
      "outputs": [
        {
          "components": [
            {
              "internalType": "address",
              "name": "nftContract",
              "type": "address"
            },
            {
              "internalType": "uint256",
              "name": "tokenId",
              "type": "uint256"
            },
            {
              "internalType": "address payable",
              "name": "seller",
              "type": "address"
            },
            {
              "internalType": "address payable",
              "name": "owner",
              "type": "address"
            },
            {
              "internalType": "bool",
              "name": "listed",
              "type": "bool"
            },
            {
              "internalType": "uint256",
              "name": "heatCount",
              "type": "uint256"
            },
            {
              "internalType": "string",
              "name": "genre",
              "type": "string"
            }
          ],
          "internalType": "struct Radio.NFT[]",
          "name": "",
          "type": "tuple[]"
        }
      ],
      "stateMutability": "view",
      "type": "function",
      "constant": true
    },
    {
      "inputs": [],
      "name": "getMyListedNfts",
      "outputs": [
        {
          "components": [
            {
              "internalType": "address",
              "name": "nftContract",
              "type": "address"
            },
            {
              "internalType": "uint256",
              "name": "tokenId",
              "type": "uint256"
            },
            {
              "internalType": "address payable",
              "name": "seller",
              "type": "address"
            },
            {
              "internalType": "address payable",
              "name": "owner",
              "type": "address"
            },
            {
              "internalType": "bool",
              "name": "listed",
              "type": "bool"
            },
            {
              "internalType": "uint256",
              "name": "heatCount",
              "type": "uint256"
            },
            {
              "internalType": "string",
              "name": "genre",
              "type": "string"
            }
          ],
          "internalType": "struct Radio.NFT[]",
          "name": "",
          "type": "tuple[]"
        }
      ],
      "stateMutability": "view",
      "type": "function",
      "constant": true
    }
  ],
  "bytecode": "0x608060405234801561001057600080fd5b50600160008190555033600360006101000a81548173ffffffffffffffffffffffffffffffffffffffff021916908373ffffffffffffffffffffffffffffffffffffffff160217905550611e31806100696000396000f3fe6080604052600436106100555760003560e01c8063047b07bf1461005a578063192027eb146100855780631f4cc4db146100a1578063414758d5146100cc5780638d6cb3fb146100e8578063f6b157a814610113575b600080fd5b34801561006657600080fd5b5061006f61013c565b60405161007c9190611605565b60405180910390f35b61009f600480360381019061009a9190611684565b610501565b005b3480156100ad57600080fd5b506100b6610788565b6040516100c39190611605565b60405180910390f35b6100e660048036038101906100e191906116c4565b610bbf565b005b3480156100f457600080fd5b506100fd610cb2565b60405161010a9190611605565b60405180910390f35b34801561011f57600080fd5b5061013a60048036038101906101359190611704565b610fac565b005b6060600061014a6002611226565b90506000805b828110156101ef573373ffffffffffffffffffffffffffffffffffffffff16600460006001846101809190611760565b815260200190815260200160002060030160009054906101000a900473ffffffffffffffffffffffffffffffffffffffff1673ffffffffffffffffffffffffffffffffffffffff16036101dc5781806101d890611794565b9250505b80806101e790611794565b915050610150565b5060008167ffffffffffffffff81111561020c5761020b6117dc565b5b60405190808252806020026020018201604052801561024557816020015b6102326112a3565b81526020019060019003908161022a5790505b5090506000805b848110156104f6573373ffffffffffffffffffffffffffffffffffffffff166004600060018461027c9190611760565b815260200190815260200160002060030160009054906101000a900473ffffffffffffffffffffffffffffffffffffffff1673ffffffffffffffffffffffffffffffffffffffff16036104e357600460006001836102da9190611760565b81526020019081526020016000206040518060e00160405290816000820160009054906101000a900473ffffffffffffffffffffffffffffffffffffffff1673ffffffffffffffffffffffffffffffffffffffff1673ffffffffffffffffffffffffffffffffffffffff168152602001600182015481526020016002820160009054906101000a900473ffffffffffffffffffffffffffffffffffffffff1673ffffffffffffffffffffffffffffffffffffffff1673ffffffffffffffffffffffffffffffffffffffff1681526020016003820160009054906101000a900473ffffffffffffffffffffffffffffffffffffffff1673ffffffffffffffffffffffffffffffffffffffff1673ffffffffffffffffffffffffffffffffffffffff1681526020016003820160149054906101000a900460ff16151515158152602001600482015481526020016005820180546104349061183a565b80601f01602080910402602001604051908101604052809291908181526020018280546104609061183a565b80156104ad5780601f10610482576101008083540402835291602001916104ad565b820191906000526020600020905b81548152906001019060200180831161049057829003601f168201915b5050505050815250508383815181106104c9576104c861186b565b5b602002602001018190525081806104df90611794565b9250505b80806104ee90611794565b91505061024c565b508194505050505090565b610509611234565b8173ffffffffffffffffffffffffffffffffffffffff166323b872dd3330846040518463ffffffff1660e01b8152600401610546939291906118b8565b600060405180830381600087803b15801561056057600080fd5b505af1158015610574573d6000803e3d6000fd5b505050506105826002611283565b6040518060e001604052808373ffffffffffffffffffffffffffffffffffffffff1681526020018281526020013373ffffffffffffffffffffffffffffffffffffffff1681526020013073ffffffffffffffffffffffffffffffffffffffff16815260200160011515815260200160008152602001604051806020016040528060008152508152506004600083815260200190815260200160002060008201518160000160006101000a81548173ffffffffffffffffffffffffffffffffffffffff021916908373ffffffffffffffffffffffffffffffffffffffff1602179055506020820151816001015560408201518160020160006101000a81548173ffffffffffffffffffffffffffffffffffffffff021916908373ffffffffffffffffffffffffffffffffffffffff16021790555060608201518160030160006101000a81548173ffffffffffffffffffffffffffffffffffffffff021916908373ffffffffffffffffffffffffffffffffffffffff16021790555060808201518160030160146101000a81548160ff02191690831515021790555060a0820151816004015560c082015181600501908161073b9190611a9b565b509050507f232534bbd51d7cde87652214a8c8454ac134ea309ff79aed199c676bebca94b9828233306040516107749493929190611b6d565b60405180910390a1610784611299565b5050565b606060006107966002611226565b90506000805b82811015610874573373ffffffffffffffffffffffffffffffffffffffff16600460006001846107cc9190611760565b815260200190815260200160002060020160009054906101000a900473ffffffffffffffffffffffffffffffffffffffff1673ffffffffffffffffffffffffffffffffffffffff1614801561084d57506004600060018361082d9190611760565b815260200190815260200160002060030160149054906101000a900460ff165b1561086157818061085d90611794565b9250505b808061086c90611794565b91505061079c565b5060008167ffffffffffffffff811115610891576108906117dc565b5b6040519080825280602002602001820160405280156108ca57816020015b6108b76112a3565b8152602001906001900390816108af5790505b5090506000805b84811015610bb4573373ffffffffffffffffffffffffffffffffffffffff16600460006001846109019190611760565b815260200190815260200160002060020160009054906101000a900473ffffffffffffffffffffffffffffffffffffffff1673ffffffffffffffffffffffffffffffffffffffff161480156109825750600460006001836109629190611760565b815260200190815260200160002060030160149054906101000a900460ff165b15610ba157600460006001836109989190611760565b81526020019081526020016000206040518060e00160405290816000820160009054906101000a900473ffffffffffffffffffffffffffffffffffffffff1673ffffffffffffffffffffffffffffffffffffffff1673ffffffffffffffffffffffffffffffffffffffff168152602001600182015481526020016002820160009054906101000a900473ffffffffffffffffffffffffffffffffffffffff1673ffffffffffffffffffffffffffffffffffffffff1673ffffffffffffffffffffffffffffffffffffffff1681526020016003820160009054906101000a900473ffffffffffffffffffffffffffffffffffffffff1673ffffffffffffffffffffffffffffffffffffffff1673ffffffffffffffffffffffffffffffffffffffff1681526020016003820160149054906101000a900460ff1615151515815260200160048201548152602001600582018054610af29061183a565b80601f0160208091040260200160405190810160405280929190818152602001828054610b1e9061183a565b8015610b6b5780601f10610b4057610100808354040283529160200191610b6b565b820191906000526020600020905b815481529060010190602001808311610b4e57829003601f168201915b505050505081525050838381518110610b8757610b8661186b565b5b60200260200101819052508180610b9d90611794565b9250505b8080610bac90611794565b9150506108d1565b508194505050505090565b60006004600084815260200190815260200160002090508060030160149054906101000a900460ff16610c27576040517f08c379a0000000000000000000000000000000000000000000000000000000008152600401610c1e90611c0f565b60405180910390fd5b8060020160009054906101000a900473ffffffffffffffffffffffffffffffffffffffff1673ffffffffffffffffffffffffffffffffffffffff166108fc839081150290604051600060405180830381858888f19350505050158015610c91573d6000803e3d6000fd5b5081816004016000828254610ca69190611760565b92505081905550505050565b60606000610cc06002611226565b90506000610cce6001611226565b82610cd99190611c2f565b905060008167ffffffffffffffff811115610cf757610cf66117dc565b5b604051908082528060200260200182016040528015610d3057816020015b610d1d6112a3565b815260200190600190039081610d155790505b5090506000805b84811015610fa15760046000600183610d509190611760565b815260200190815260200160002060030160149054906101000a900460ff1615610f8e5760046000600183610d859190611760565b81526020019081526020016000206040518060e00160405290816000820160009054906101000a900473ffffffffffffffffffffffffffffffffffffffff1673ffffffffffffffffffffffffffffffffffffffff1673ffffffffffffffffffffffffffffffffffffffff168152602001600182015481526020016002820160009054906101000a900473ffffffffffffffffffffffffffffffffffffffff1673ffffffffffffffffffffffffffffffffffffffff1673ffffffffffffffffffffffffffffffffffffffff1681526020016003820160009054906101000a900473ffffffffffffffffffffffffffffffffffffffff1673ffffffffffffffffffffffffffffffffffffffff1673ffffffffffffffffffffffffffffffffffffffff1681526020016003820160149054906101000a900460ff1615151515815260200160048201548152602001600582018054610edf9061183a565b80601f0160208091040260200160405190810160405280929190818152602001828054610f0b9061183a565b8015610f585780601f10610f2d57610100808354040283529160200191610f58565b820191906000526020600020905b815481529060010190602001808311610f3b57829003601f168201915b505050505081525050838381518110610f7457610f7361186b565b5b60200260200101819052508180610f8a90611794565b9250505b8080610f9990611794565b915050610d37565b508194505050505090565b610fb4611234565b60006004600083815260200190815260200160002090508060030160149054906101000a900460ff1661101c576040517f08c379a000000000000000000000000000000000000000000000000000000000815260040161101390611c0f565b60405180910390fd5b3373ffffffffffffffffffffffffffffffffffffffff168160020160009054906101000a900473ffffffffffffffffffffffffffffffffffffffff1673ffffffffffffffffffffffffffffffffffffffff16146110ae576040517f08c379a00000000000000000000000000000000000000000000000000000000081526004016110a590611cd5565b60405180910390fd5b60046000838152602001908152602001600020600080820160006101000a81549073ffffffffffffffffffffffffffffffffffffffff021916905560018201600090556002820160006101000a81549073ffffffffffffffffffffffffffffffffffffffff02191690556003820160006101000a81549073ffffffffffffffffffffffffffffffffffffffff02191690556003820160146101000a81549060ff0219169055600482016000905560058201600061116b9190611324565b50507f48359e48a1f5ed61bd9a9b6a18ff557528271bcb297f07813c282639197d138b8160000160009054906101000a900473ffffffffffffffffffffffffffffffffffffffff1682600101548360020160009054906101000a900473ffffffffffffffffffffffffffffffffffffffff168460030160009054906101000a900473ffffffffffffffffffffffffffffffffffffffff166040516112129493929190611d4a565b60405180910390a150611223611299565b50565b600081600001549050919050565b600260005403611279576040517f08c379a000000000000000000000000000000000000000000000000000000000815260040161127090611ddb565b60405180910390fd5b6002600081905550565b6001816000016000828254019250508190555050565b6001600081905550565b6040518060e00160405280600073ffffffffffffffffffffffffffffffffffffffff16815260200160008152602001600073ffffffffffffffffffffffffffffffffffffffff168152602001600073ffffffffffffffffffffffffffffffffffffffff16815260200160001515815260200160008152602001606081525090565b5080546113309061183a565b6000825580601f106113425750611361565b601f0160209004906000526020600020908101906113609190611364565b5b50565b5b8082111561137d576000816000905550600101611365565b5090565b600081519050919050565b600082825260208201905092915050565b6000819050602082019050919050565b600073ffffffffffffffffffffffffffffffffffffffff82169050919050565b60006113d8826113ad565b9050919050565b6113e8816113cd565b82525050565b6000819050919050565b611401816113ee565b82525050565b6000611412826113ad565b9050919050565b61142281611407565b82525050565b60008115159050919050565b61143d81611428565b82525050565b600081519050919050565b600082825260208201905092915050565b60005b8381101561147d578082015181840152602081019050611462565b60008484015250505050565b6000601f19601f8301169050919050565b60006114a582611443565b6114af818561144e565b93506114bf81856020860161145f565b6114c881611489565b840191505092915050565b600060e0830160008301516114eb60008601826113df565b5060208301516114fe60208601826113f8565b5060408301516115116040860182611419565b5060608301516115246060860182611419565b5060808301516115376080860182611434565b5060a083015161154a60a08601826113f8565b5060c083015184820360c0860152611562828261149a565b9150508091505092915050565b600061157b83836114d3565b905092915050565b6000602082019050919050565b600061159b82611381565b6115a5818561138c565b9350836020820285016115b78561139d565b8060005b858110156115f357848403895281516115d4858261156f565b94506115df83611583565b925060208a019950506001810190506115bb565b50829750879550505050505092915050565b6000602082019050818103600083015261161f8184611590565b905092915050565b600080fd5b611635816113cd565b811461164057600080fd5b50565b6000813590506116528161162c565b92915050565b611661816113ee565b811461166c57600080fd5b50565b60008135905061167e81611658565b92915050565b6000806040838503121561169b5761169a611627565b5b60006116a985828601611643565b92505060206116ba8582860161166f565b9150509250929050565b600080604083850312156116db576116da611627565b5b60006116e98582860161166f565b92505060206116fa8582860161166f565b9150509250929050565b60006020828403121561171a57611719611627565b5b60006117288482850161166f565b91505092915050565b7f4e487b7100000000000000000000000000000000000000000000000000000000600052601160045260246000fd5b600061176b826113ee565b9150611776836113ee565b925082820190508082111561178e5761178d611731565b5b92915050565b600061179f826113ee565b91507fffffffffffffffffffffffffffffffffffffffffffffffffffffffffffffffff82036117d1576117d0611731565b5b600182019050919050565b7f4e487b7100000000000000000000000000000000000000000000000000000000600052604160045260246000fd5b7f4e487b7100000000000000000000000000000000000000000000000000000000600052602260045260246000fd5b6000600282049050600182168061185257607f821691505b6020821081036118655761186461180b565b5b50919050565b7f4e487b7100000000000000000000000000000000000000000000000000000000600052603260045260246000fd5b6118a3816113cd565b82525050565b6118b2816113ee565b82525050565b60006060820190506118cd600083018661189a565b6118da602083018561189a565b6118e760408301846118a9565b949350505050565b60008190508160005260206000209050919050565b60006020601f8301049050919050565b600082821b905092915050565b6000600883026119517fffffffffffffffffffffffffffffffffffffffffffffffffffffffffffffffff82611914565b61195b8683611914565b95508019841693508086168417925050509392505050565b6000819050919050565b600061199861199361198e846113ee565b611973565b6113ee565b9050919050565b6000819050919050565b6119b28361197d565b6119c66119be8261199f565b848454611921565b825550505050565b600090565b6119db6119ce565b6119e68184846119a9565b505050565b5b81811015611a0a576119ff6000826119d3565b6001810190506119ec565b5050565b601f821115611a4f57611a20816118ef565b611a2984611904565b81016020851015611a38578190505b611a4c611a4485611904565b8301826119eb565b50505b505050565b600082821c905092915050565b6000611a7260001984600802611a54565b1980831691505092915050565b6000611a8b8383611a61565b9150826002028217905092915050565b611aa482611443565b67ffffffffffffffff811115611abd57611abc6117dc565b5b611ac7825461183a565b611ad2828285611a0e565b600060209050601f831160018114611b055760008415611af3578287015190505b611afd8582611a7f565b865550611b65565b601f198416611b13866118ef565b60005b82811015611b3b57848901518255600182019150602085019450602081019050611b16565b86831015611b585784890151611b54601f891682611a61565b8355505b6001600288020188555050505b505050505050565b6000608082019050611b82600083018761189a565b611b8f60208301866118a9565b611b9c604083018561189a565b611ba9606083018461189a565b95945050505050565b600082825260208201905092915050565b7f4e4654206973206e6f74206c6973746564000000000000000000000000000000600082015250565b6000611bf9601183611bb2565b9150611c0482611bc3565b602082019050919050565b60006020820190508181036000830152611c2881611bec565b9050919050565b6000611c3a826113ee565b9150611c45836113ee565b9250828203905081811115611c5d57611c5c611731565b5b92915050565b7f4f6e6c79207468652073656c6c65722063616e2064656c65746520746865204e60008201527f4654000000000000000000000000000000000000000000000000000000000000602082015250565b6000611cbf602283611bb2565b9150611cca82611c63565b604082019050919050565b60006020820190508181036000830152611cee81611cb2565b9050919050565b6000611d10611d0b611d06846113ad565b611973565b6113ad565b9050919050565b6000611d2282611cf5565b9050919050565b6000611d3482611d17565b9050919050565b611d4481611d29565b82525050565b6000608082019050611d5f600083018761189a565b611d6c60208301866118a9565b611d796040830185611d3b565b611d866060830184611d3b565b95945050505050565b7f5265656e7472616e637947756172643a207265656e7472616e742063616c6c00600082015250565b6000611dc5601f83611bb2565b9150611dd082611d8f565b602082019050919050565b60006020820190508181036000830152611df481611db8565b905091905056fea2646970667358221220ebf700576c9433270a0bbdb347b859cdc30df99b45f181c2fdc72b3a39601caa64736f6c63430008110033",
  "immutableReferences": {},
  "source": "// SPDX-License-Identifier: MIT\r\npragma solidity ^0.8.13;\r\n\r\nimport \"@openzeppelin/contracts/utils/Counters.sol\";\r\nimport \"@openzeppelin/contracts/token/ERC721/ERC721.sol\";\r\nimport \"@openzeppelin/contracts/security/ReentrancyGuard.sol\";\r\n\r\ncontract Radio is ReentrancyGuard {\r\n    using Counters for Counters.Counter;\r\n    Counters.Counter private _nftsSold;\r\n    Counters.Counter private _nftCount;\r\n\r\n    address payable private _marketOwner;\r\n    mapping(uint256 => NFT) private _idToNFT;\r\n\r\n    struct NFT {\r\n        address nftContract;\r\n        uint256 tokenId;\r\n        address payable seller;\r\n        address payable owner;\r\n        bool listed;\r\n        uint256 heatCount;\r\n        string genre;\r\n    }\r\n\r\n    event NFTListed(\r\n        address nftContract,\r\n        uint256 tokenId,\r\n        address seller,\r\n        address owner\r\n    );\r\n\r\n    event NFTSold(\r\n        address nftContract,\r\n        uint256 tokenId,\r\n        address seller,\r\n        address owner\r\n    );\r\n\r\n    event NFTDeleted(\r\n        address nftContract,\r\n        uint256 tokenId,\r\n        address seller,\r\n        address owner\r\n    );\r\n\r\n    constructor() {\r\n        _marketOwner = payable(msg.sender);\r\n    }\r\n\r\n    function giveHeat(uint256 _tokenId, uint256 _heatCount) public payable {\r\n        // Ensure that the NFT exists and is listed\r\n        NFT storage nft = _idToNFT[_tokenId];\r\n        require(nft.listed, \"NFT is not listed\");\r\n\r\n        // Send the heatCount amount of ETH to the seller's address\r\n        nft.seller.transfer(_heatCount);\r\n\r\n        // Increment the heatCount of the NFT by the given amount\r\n        nft.heatCount += _heatCount;\r\n    }\r\n\r\n    function deleteNft(uint256 _tokenId) public nonReentrant {\r\n        // Ensure that the NFT exists and is listed\r\n        NFT storage nft = _idToNFT[_tokenId];\r\n        require(nft.listed, \"NFT is not listed\");\r\n\r\n        // Ensure that the seller of the NFT is the one calling this function\r\n        require(nft.seller == msg.sender, \"Only the seller can delete the NFT\");\r\n\r\n        // Remove the NFT from the marketplace\r\n        delete _idToNFT[_tokenId];\r\n\r\n        emit NFTDeleted(nft.nftContract, nft.tokenId, nft.seller, nft.owner);\r\n    }\r\n\r\n    // List the NFT on the marketplace\r\n    function listNft(address _nftContract, uint256 _tokenId)\r\n        public\r\n        payable\r\n        nonReentrant\r\n    {\r\n        IERC721(_nftContract).transferFrom(msg.sender, address(this), _tokenId);\r\n\r\n        _nftCount.increment();\r\n\r\n        _idToNFT[_tokenId] = NFT(\r\n            _nftContract,\r\n            _tokenId,\r\n            payable(msg.sender),\r\n            payable(address(this)),\r\n            true,\r\n            0,\r\n            \"\"\r\n        );\r\n\r\n        emit NFTListed(_nftContract, _tokenId, msg.sender, address(this));\r\n    }\r\n\r\n    function getListedNfts() public view returns (NFT[] memory) {\r\n        uint256 nftCount = _nftCount.current();\r\n        uint256 unsoldNftsCount = nftCount - _nftsSold.current();\r\n\r\n        NFT[] memory nfts = new NFT[](unsoldNftsCount);\r\n        uint256 nftsIndex = 0;\r\n        for (uint256 i = 0; i < nftCount; i++) {\r\n            if (_idToNFT[i + 1].listed) {\r\n                nfts[nftsIndex] = _idToNFT[i + 1];\r\n                nftsIndex++;\r\n            }\r\n        }\r\n        return nfts;\r\n    }\r\n\r\n    function getMyNfts() public view returns (NFT[] memory) {\r\n        uint256 nftCount = _nftCount.current();\r\n        uint256 myNftCount = 0;\r\n        for (uint256 i = 0; i < nftCount; i++) {\r\n            if (_idToNFT[i + 1].owner == msg.sender) {\r\n                myNftCount++;\r\n            }\r\n        }\r\n\r\n        NFT[] memory nfts = new NFT[](myNftCount);\r\n        uint256 nftsIndex = 0;\r\n        for (uint256 i = 0; i < nftCount; i++) {\r\n            if (_idToNFT[i + 1].owner == msg.sender) {\r\n                nfts[nftsIndex] = _idToNFT[i + 1];\r\n                nftsIndex++;\r\n            }\r\n        }\r\n        return nfts;\r\n    }\r\n\r\n    function getMyListedNfts() public view returns (NFT[] memory) {\r\n        uint256 nftCount = _nftCount.current();\r\n        uint256 myListedNftCount = 0;\r\n        for (uint256 i = 0; i < nftCount; i++) {\r\n            if (\r\n                _idToNFT[i + 1].seller == msg.sender && _idToNFT[i + 1].listed\r\n            ) {\r\n                myListedNftCount++;\r\n            }\r\n        }\r\n\r\n        NFT[] memory nfts = new NFT[](myListedNftCount);\r\n        uint256 nftsIndex = 0;\r\n        for (uint256 i = 0; i < nftCount; i++) {\r\n            if (\r\n                _idToNFT[i + 1].seller == msg.sender && _idToNFT[i + 1].listed\r\n            ) {\r\n                nfts[nftsIndex] = _idToNFT[i + 1];\r\n                nftsIndex++;\r\n            }\r\n        }\r\n        return nfts;\r\n    }\r\n}\r\n",
  "sourcePath": "C:\\Users\\chris\\radio3\\radio3-mui\\smart-contracts\\contracts\\Radio.sol",
  "compiler": {
    "name": "solc",
    "version": "0.8.17+commit.8df45f5f.Emscripten.clang"
  },
  "schemaVersion": "3.4.11",
  "updatedAt": "2023-01-13T20:18:43.113Z",
  "networkType": "ethereum",
  "devdoc": {
    "kind": "dev",
    "methods": {},
    "version": 1
  },
  "userdoc": {
    "kind": "user",
    "methods": {},
    "version": 1
  }
}